:100000000C94D10F18951895189518951895189562
:100010001895189518951895189518951895189578
:10002000189518950C94EF0D189518951895189526
:100030001895189518951895189518950C94AE0D57
:1000400018951895189518950C9456040C949604C8
:100050000C9425040C94530118951895189518952F
:100060001895189518951895189518951895189528
:100070001895189518951895189518951895189518
:1000800018951895189518951895189500C18140E0
:1000900001C0804101C0804100C1814001C0804158
:1000A00000C1814000C1814001C0804101C0804148
:1000B00000C1814000C1814001C0804100C1814038
:1000C00001C0804101C0804100C1814001C0804128
:1000D00000C1814000C1814001C0804100C1814018
:1000E00001C0804101C0804100C1814000C1814008
:1000F00001C0804101C0804100C1814001C08041F8
:1001000000C1814000C1814001C0804101C08041E7
:1001100000C1814000C1814001C0804100C18140D7
:1001200001C0804101C0804100C1814000C18140C7
:1001300001C0804101C0804100C1814001C08041B7
:1001400000C1814000C1814001C0804100C18140A7
:1001500001C0804101C0804100C1814001C0804197
:1001600000C1814000C1814001C0804101C0804187
:1001700000C1814000C1814001C0804100C1814077
:1001800001C0804101C0804100C1814000C0C10167
:10019000C30302C2C60607C705C5C404CC0C0DCDF7
:1001A0000FCFCE0E0ACACB0BC90908C8D81819D967
:1001B0001BDBDA1A1EDEDF1FDD1D1CDC14D4D51597
:1001C000D71716D6D21213D311D1D010F03031F187
:1001D00033F3F23236F6F737F53534F43CFCFD3DB7
:1001E000FF3F3EFEFA3A3BFB39F9F83828E8E929A7
:1001F000EB2B2AEAEE2E2FEF2DEDEC2CE42425E557
:1002000027E7E62622E2E323E12120E0A06061A1C6
:1002100063A3A26266A6A767A56564A46CACAD6D76
:10022000AF6F6EAEAA6A6BAB69A9A86878B8B979E6
:10023000BB7B7ABABE7E7FBF7DBDBC7CB47475B516
:1002400077B7B67672B2B373B17170B05090915106
:100250009353529296565797559594549C5C5D9D36
:100260005F9F9E5E5A9A9B5B995958988848498926
:100270004B8B8A4A4E8E8F4F8D4D4C8C44848545D6
:100280008747468682424383418180400030011780
:1002900004F10330F90360FF03C00504C00B04FE42
:1002A00002401104FB00FA92EA92DA92CA92AA92F0
:1002B0009A928A927A926A925A924A92BA93AA939C
:1002C0009A938A93FA93EA933A922A921A920A920A
:1002D0007A936A935A934A933A932A931A930A9376
:1002E0009FB6ABB604B110E0680115B100E0C02ABA
:1002F000D12A0091FE01802EEEEFF1E000810395FE
:1003000000830091FE0107B90091FE01083011F44D
:10031000369801C0369AED2CEE0CEE08FE2C082D16
:1003200010E0000F111F000F111FF801E255FE4FE2
:1003300000811181228133810C0D1D1D2E1D3F1D59
:100340000083118322833383082D10E0000F111FD7
:10035000F801E150FE4FC082D182082D10E0000F5D
:10036000111F000F111FF801E253FE4F0081118190
:10037000228133810F5F1F4F2F4F3F4F0083118327
:1003800022833383082D10E0000F111FF801E25182
:10039000FE4F00811181212F220F220B322F482D79
:1003A00050E0440F551F440F551FFA01E253FE4F12
:1003B0004081518162817381041715072607370731
:1003C0000CF08BC0082D0695802F0FE0402E02E028
:1003D000502E482F50E007E110E00E94F50F400E2C
:1003E000511ED20180FA36F5082D10E0000F111FC2
:1003F000000F111FF801E255FE4F408151816281CB
:10040000738104E010E020E030E00E94FD0F482DF1
:1004100050E0440F551F440F551FFA01E253FE4FA1
:1004200040815181628173810E944810FD010183E6
:10043000128331C0082D10E0000F111F000F111F93
:10044000F801E255FE4F408151816281738100EDD8
:1004500017E020E030E00E94FD0F28013901082D4F
:1004600010E0000F111F000F111FF801E253FE4FA3
:10047000408151816281738109EA10E020E030E01F
:100480000E94FD0FA801B901820193010E9448104A
:10049000FD010383148300E010E020E030E0482DEC
:1004A00050E0440F551F440F551FFA01E253FE4F11
:1004B000008311832283338300E010E020E030E0EA
:1004C000482D50E0440F551F440F551FFA01E255C7
:1004D000FE4F008311832283338307E0801609F0E7
:1004E0004DC0369880E090E0843000E090070CF03A
:1004F00045C00FE0402E02E0502EAC0107E110E0B5
:100500000E94F50F400E511ED201FD010081013005
:1005100021F0FD0100810A3079F5FD0143895489FC
:10052000658976890C01000C111C000C111CF0016E
:10053000E150FE4F00801180212C220C2208322C29
:10054000040E151E261E371E80019101FD014389F0
:10055000548965897689041715072607370738F403
:10056000FD01418952894F5F5F4F418B528BFD01E5
:10057000038B148B258B368B0196B6CFABBE9FBEFB
:1005800009911991299139914991599169917991DB
:100590000990199029903990E991F991899199914F
:1005A000A991B991499059906990799089909990C1
:1005B000A990C990D990E990F990189500E010E0C1
:1005C00020E030E0E5EDF0E1008311832283338306
:1005D00000E010E020E030E0EBE6F2E00083118381
:1005E0002283338309E419E0E7E4F9E0008311830F
:1005F0000DEC1CE0E0E7F2E0008311830FEF0093C5
:10060000D20C00E000934F0907E010E0E5E4F9E0C8
:100610000083118308950E94AC12009172020A3087
:1006200009F083C0E5EDF0E1008111812281338181
:10063000EBE6F2E040815181628173810417150776
:10064000260737070CF471C0E4E9F0E1008111815D
:10065000212F220F220B322FEBE6F2E04081518155
:1006600062817381400F511F621F731F408351834A
:1006700062837383E5E4F9E0A081B1815496A338E5
:1006800003E0B00740F021E0E7E4F9E000811181E8
:10069000F80126834AC0E7E4F9E000811181E5E42E
:1006A000F9E020813181020F131FC801E5EDF0E16F
:1006B0000081118122813381FC0100831183228317
:1006C0003383A0E0B0E0A43000E0B00734F5AD0122
:1006D00007E110E00E94F50FF801E15FFD4F238173
:1006E00034818D01000F111FFC01E00FF11F2483E5
:1006F0003583AD0107E110E00E94F50FF801E15FDD
:10070000FD4F218132818D01000F111FFC01E00F8F
:10071000F11F248735871196D6CFE5E4F9E00081F3
:1007200011810C5E1F4F00831183E4E00C94B7121B
:1007300000E0083068F420E230E0402F50E0440F41
:10074000551FFA01E251FE4F208331830395F1CF0B
:1007500000E00093FE0100E007B907E006B9379A10
:10076000339A369A089500E00093FE010091FE014D
:1007700007B9369A08950E94AC12D801822FF894D6
:1007800002E00BB908E10AB906E000939500082FD2
:10079000005029F00A95A1F00A9539F01BC000918C
:1007A00095000F7C0093950015C0009195000062A4
:1007B00000939500009195000F7E009395000AC06C
:1007C00000919500006200939500009195000061F2
:1007D000009395008D01ECE8F0E0FBBFF2E00C9493
:1007E00065120FE709B901E0009390000FE709B91E
:1007F00023C000E0009390000FEB09B91DC000E09A
:10080000009390000FE509B917C000E00093900035
:100810000FE209B911C000E0009390000FE109B99F
:100820000BC000E0009390000FE009B905C000E0A4
:10083000009390000FE109B903E712E00E94BA0E9D
:10084000579A7894E4E00C94B7129A938A93FA93A7
:10085000EA933A922A921A920A927A936A935A9354
:100860004A933A932A931A930A938FB79BB7579A4E
:1008700000919A00006800939A005698789403E7D4
:1008800012E00E94BA0E9BBF8FBF09911991299166
:1008900039914991599169917991099019902990CB
:1008A0003990E991F991899199911895AA939A9320
:1008B0008A93FA93EA933A922A921A920A927A9334
:1008C0006A935A934A933A932A931A930A939FB737
:1008D000ABB75798789423E732E00CB10E944E0FE3
:1008E000802F8A3051F400E010E01DBD0CBD0FEFE9
:1008F0001FEF1BBD0ABD00E106BFF894579A88237D
:1009000009F45798ABBF9FBF09911991299139916B
:10091000499159916991799109901990299039904B
:10092000E991F99189919991A99118959A938A934E
:10093000FA93EA933A922A921A920A927A936A93D3
:100940005A934A933A932A931A930A938FB79BB771
:1009500021975598789426E734E08E010E94DC0EAA
:10096000002371F408810CB930917A0420E00881E9
:1009700010E0020F131F0E947407F894559A06C0E6
:100980000BEB1BEB0E9474075598569A21969BBF60
:100990008FBF099119912991399149915991699183
:1009A00079910990199029903990E991F99189915B
:1009B000999118950E94AC12802FD9014D915C91AC
:1009C0001197FD01238130E0FD01148100E0020F49
:1009D000131F4017510719F001E010E01DC0FD0181
:1009E0000581081719F002E010E016C0FD0106812C
:1009F00007FF03C003E010E00FC02D913C91119759
:100A00008D010D5F1F4F0E944F07012B19F004E06D
:100A100010E002C000E010E0E4E00C94B712642F94
:100A2000652B59F0F8016081F90160832F5F3F4F1A
:100A30000F5F1F4F41505040F2CF08950E94AC12FB
:100A40002091760230E01091770200E0020F131F30
:100A5000EBE7F4E000831183EBE7F4E00081118120
:100A60000F5F1F4F008311830091A80100937D0445
:100A70000FE800937E0401E000937F04E3E7F2E0D7
:100A8000A081B1811597AD0120E834E009E712E0BB
:100A9000C6DFEBE7F4E020813181225030400BE7E4
:100AA00014E00E944F07C8018C01012F110F110B98
:100AB000EBE7F4E020813181F901E758FB4F008337
:100AC000082FEBE7F4E020813181F901E658FB4F74
:100AD000008346E754E02BE734E0EBE7F4E00081E5
:100AE00011810E94C50E559AE4E00C94B7120E9441
:100AF000AA12C801D901082F0C938C01012F110FE4
:100B0000110BFD0101830091A801FD0102839C01ED
:100B1000225030408D010E944F0728018201012F91
:100B2000110F110BFD01E80FF91F32970083042DFF
:100B3000FD01E80FF91F3197008346E754E09D015E
:100B40008C010E94C50E559A03E712E00E94BA0E6E
:100B5000E6E00C94B512B801AB010E94F00F30E052
:100B60000217130749F0E199FECFF8947FBB6EBBE3
:100B70002DBBE29AE19A78940895792F082E01E529
:100B800010E1C80140E050E0453400E0500750F467
:100B90000E94ED0F602FFC0160830196A8954F5FC6
:100BA0005F4FF2CF009151100F3F99F502E0009393
:100BB000511004E610E0E1E5F0E10183128300E06A
:100BC00010E0E1E5F0E10383148302E310E020E0AC
:100BD00030E0E1E5F0E1058B168B278B308F02E3E7
:100BE00010E020E030E0E1E5F0E1018F128F238F8B
:100BF000348F04E600938E100AE500938F1008E509
:100C000012E020E030E0E0E9F0E10083118322838C
:100C10003383802D972F08950E94AC1201E510E1D7
:100C2000D801A89580E090E0853400E0900740F47A
:100C3000FD0120818C018FDF1196A8950196F4CFDC
:100C4000E4E00C94B7128A93802F00917902006837
:100C500000938008809381082DE738E007E010E0DA
:100C600046DF899108950E94AC120091750203300D
:100C700009F012C123E732E00091A8019BDE012BAD
:100C800031F003E712E00E94BA0E579A05C10091B5
:100C900079020150A9F00350A1F10A9509F446C068
:100CA0000A9509F45DC00A9509F45FC00A9509F434
:100CB00064C00A9509F467C00A9509F4DEC0E7C06C
:100CC00001E80093800801E00093810800E00093B0
:100CD000820801E00093830804E0009384080091F7
:100CE00072020093850845E450E021E530E106E812
:100CF00018E00E94C4122DE738E000E510E0F7DEAE
:100D0000C7C004E800938008009172020093810834
:100D10004CE550E02FE032E002E818E00E94C412F7
:100D20002DE738E002E610E0E2DEB2C000E08BDF43
:100D300003E712E00E94BA0EA89545E450E02AE7C6
:100D400032E001E510E10E94C41266DF00917202F8
:100D50000A3019F00E94CF0C9FC00E948A0C9CC0E0
:100D600000E071DF0E94CF0C93C000E06CDF0E94B6
:100D70008A0C00E00093A0108BC000E064DF00E06C
:100D800000936F0285C0E6E9F0E100811181012B3B
:100D900081F000916F0210917A02011751F4E0E79F
:100DA000F2E020813181E6E9F0E1008111819FDEEE
:100DB0006FC000917A0200936F02E0E7F2E02081B9
:100DC000318109E419E020173107E1F40DEC1CE052
:100DD000E0E7F2E00083118309E419E0E7E4F9E0D9
:100DE00000831183E5E4F9E0808191810196E6E9D1
:100DF000F0E18083918307E010E0E5E4F9E000830F
:100E000011831BC009E419E0E0E7F2E000831183DD
:100E10000DEC1CE0E7E4F9E000831183E5E4F9E080
:100E2000808191810196E6E9F0E18083918307E07A
:100E300010E0E5E4F9E00083118300E0A7E4B9E005
:100E4000ED91FC911197068309E8A0E7B2E0ED91DE
:100E5000FC911197038300916F02A0E7B2E0ED913E
:100E6000FC9111970583E0E7F2E020813181E6E90A
:100E7000F0E1008111813BDE0BC000E0E4DE03E71E
:100E800012E00E94BA0EA8950E940F0805C0D6DD98
:100E900003E712E00E94BA0EE4E00C94B7121C01C2
:100EA000C8014FEF5FEF8901980121503040012BBD
:100EB000B9F0042F10E0FC01008011240026112657
:100EC000B0010196ECE8F0E0E60FF71F049105276A
:100ED000402FECE8F1E0E60FF71F0491502FE3CF2D
:100EE000052F142FC1010895089598010091650000
:100EF000086000936500C79A022F00FB02B307F950
:100F000002BB35952795022F00FB02B306F902BB01
:100F100035952795022F00FB02B306F902BB3595E4
:100F20002795022F00FB02B305F902BB35952795E3
:100F3000022F00FB02B304F902BB35952795022F5F
:100F400000FB02B303F902BB35952795022F00FB86
:100F500002B302F902BB35952795022F00FB02B3BD
:100F600001F902BB35952795022F00FB02B300F96A
:100F700002BB35952795022F00FB08B305F908BB86
:100F800035952795022F00FB08B306F908BBC798D3
:100F9000C798C798C798009165000F7E00936500B9
:100FA000C79A0091650000610093650000E010E0C1
:100FB00008950E94A812802F882321F400E010E0F9
:100FC00094DF2AC0E1EAF0E10681178120853185AE
:100FD00028013901A201B301082F10E020E030E020
:100FE0000E94FD0F28013901E1EAF0E10285138535
:100FF00024853585040D151D261D371D0E5C1F4FDC
:101000002F4F3F4F44E650E060E070E00E944810F0
:1010100028013901820169DFE8E00C94B3120E94D3
:10102000A61204E6602E772400E010E0E1EAF0E189
:101030000083118300E010E020E030E0E1EAF0E11D
:1010400002871387248735870AE916E020E030E01D
:10105000E1EAF0E10683178320873187AA9AAD9AE7
:10106000DB9AD89AA898AB98AE98DA98A998AC98D9
:10107000AF98D99800E09DDF930100E00E940D0E2B
:1010800000E00E94410E002311F4A895F9CFEFE093
:10109000F2E00181128103301040DCF4AA98AD988F
:1010A000DB98D898A89AAB9AAE9ADA9AA99AAC9A91
:1010B000AF9AD99A28EE33E000E00E940D0E00E0CE
:1010C0000E94410E002311F4A895F9CF0FEF1FEFF6
:1010D000A1C001E06EDF930100E00E940D0E00E070
:1010E0000E94410E002311F4A895F9CFEFE0F2E041
:1010F00003811481E1EAF0E10283138304E659DFFE
:10110000930100E00E940D0E00E00E94410E0023BA
:1011100011F4A895F9CFEFE0F2E003811481E1EA40
:10112000F0E10483158344E650E0E1EAF0E1028156
:101130001381401B510B09EA10E00E94F50F212F8B
:10114000220F220B322FE1EAF0E102871387248776
:101150003587E1EAF0E102851385248535854AE08B
:1011600050E060E070E00E944810E1EAF0E10287A0
:10117000138724873587E1EAF0E104811581E1EAEC
:10118000F0E122813381021B130B212F220F220B4E
:10119000322F0E94AA10C801D90100E010EB2AE109
:1011A00036E4AC01BD010E94DE11C801D9018C01F9
:1011B0009D0140E050E463ED74E40E94651140E05D
:1011C00050E060E07FE30E9407110E94B510E1EA61
:1011D000F0E1068317832087318701EA10E12801B7
:1011E000A895882499240EE0801600E0900690F4DB
:1011F000F201208130E0840108511C4F0E94AB05B0
:1012000001E0400E00E0501EA89501E0800E00E0D5
:10121000901EE9CFEAE00C94B112792F082E01EA72
:1012200010E1C80120E030E02E3000E0300768F423
:10123000A90148515C4F0E94ED0F602FFC016083B3
:101240000196A8952F5F3F4FEFCFE1EAF0E10081D3
:1012500011810F3F20E01207D1F400E010E0E1EA35
:10126000F0E1008311830AE916E020E030E0E1EAD2
:10127000F0E1068317832087318700E010E020E04B
:1012800030E0E1EAF0E10287138724873587802D7B
:10129000972F0895102F105039F01A9539F01A959C
:1012A00039F01A9539F00895AA980895AD980895DF
:1012B000DB980895D8980895102F105039F01A959A
:1012C00039F01A9539F01A9539F00895AA9A0895C7
:1012D000AD9A0895DB9A0895D89A0895102F10506A
:1012E00039F01A9539F01A9539F01A9539F00895B0
:1012F000A9980895AC980895AF980895D99808953D
:10130000102F105039F01A9539F01A9539F01A95B6
:1013100039F00895A99A0895AC9A0895AF9A08955E
:10132000D99A0895202F205039F02A9559F02A95FE
:1013300079F02A9599F00895212F20FDA99A20FF90
:10134000A9980895212F20FDAC9A20FFAC9808950C
:10135000212F20FDAF9A20FFAF980895212F20FD67
:10136000D99A20FFD9980895102F105039F01A9566
:1013700039F01A9539F01A9539F00895A89808951A
:10138000AB980895AE980895DA980895102F1050EC
:1013900039F01A9539F01A9539F01A9539F00895FF
:1013A000A89A0895AB9A0895AE9A0895DA9A089586
:1013B0000E94A912C8010FE0402E02E0502EAC019D
:1013C00007E110E00E94F50F400E511ED20140913E
:1013D0008F1050E004E610E00E94F50FFD0123811C
:1013E0003481021713071CF4082F54DF02C0082FA2
:1013F00063DF00917202002311F166246394442498
:10140000552404E0401600E050068CF4A20107E1E8
:1014100010E00E94F50FF801E15FFD4F00810330FD
:1014200009F4662401E0400E00E0501EEACF662079
:1014300031F000918E10BDDD00E0009372020C913E
:10144000005051F00A9509F47DC00A9509F436C19F
:101450000A9509F493C19FC1082F98DF082F50DF28
:1014600000910F02002379F400912602002359F421
:1014700000913D02002339F400915402002319F435
:1014800000E00093720200E010E020E030E0FD0197
:10149000038B148B258B368B00E010E0FD01018B54
:1014A000128BFD01018112810D3221E012070CF433
:1014B00072C100E010E020E030E0FD0105831683FA
:1014C00027833087009172020023B9F002E00C9369
:1014D00000E010E020E030E0FD0101871287238763
:1014E000348700E010E020E030E0FD01058716873A
:1014F0002787308B02E00C934EC101E00C93E5EDA1
:10150000F0E10081118122813381FD010187128781
:1015100023873487FD010185128523853485E9EA17
:10152000F1E04081518162817381400F511F621F40
:10153000731FFD01458756876787708B00918E105A
:1015400038DD29C1082F22DF082FC8DEE5EDF0E1E4
:101550000081118122813381FD014185528563859E
:101560007485041715072607370741F1FD014581EA
:10157000568167817085E5EDF0E10081118122815E
:101580003381040F151F261F371FFD01418552852A
:1015900063857485041B150B260B370BFD01058332
:1015A000168327833087E5EDF0E1008111812281E8
:1015B0003381FD010187128723873487FD0105816F
:1015C000168127813085E0E9F0E140815181628117
:1015D0007381041715072607370744F003E00C93BF
:1015E00000E0E7DC01E000937202D5C000917202D6
:1015F0000130F1F5E5EDF0E10081118122813381C7
:10160000102F1F7015951595082F8CDEFD01458153
:10161000568167817085E5EDF0E1008111812281BD
:101620003381040F151F261F371FFD014185528589
:1016300063857485041B150B260B370BFD01058391
:1016400016832783308700E010E020E030E0FD01C2
:10165000018712872387348700E010E020E030E024
:10166000FD01058716872787308B02E00C9393C016
:10167000FD01018112810C3221E012070CF08BC0B8
:1016800000E010E020E030E0FD01058316832783B1
:10169000308700E00C9300E010E020E030E0FD0136
:1016A000018712872387348700E010E020E030E0D4
:1016B000FD01058716872787308B6DC0E5EDF0E1CA
:1016C0000081118122813381102F1F70159515958E
:1016D000082F28DEFD01018112810C3221E0120762
:1016E000F4F400E010E020E030E0FD010583168313
:1016F0002783308700E00C9300E010E020E030E02A
:10170000FD01018712872387348700E010E020E085
:1017100030E0FD01058716872787308B3CC000919C
:1017200072020023C1F501E00C93E5EDF0E10081C8
:10173000118122813381FD0101871287238734873C
:10174000FD014185528563857485E9EAF1E00081F8
:10175000118122813381040F151F261F371FFD01C0
:101760004581568167817085041B150B260B370B4D
:10177000FD01058716872787308B0DC0082FF4DD04
:10178000082FBEDDFD0101811281043620E0120721
:1017900014F400E00C93E7E00C94B4120FE00ABBE1
:1017A00000EE07BB0FEF04BB0FEF01BB0CEF02B95C
:1017B0000FEF00936400089500E00FBD02E00EBD3E
:1017C0000FEF1FEF1BBD0ABD00E000938B0002E08E
:1017D00000938A0000E010E01093890000938800D5
:1017E0000FEF1FEF109387000093860000E106BF04
:1017F00008959A938A93EFEAF0E100811181000F36
:10180000000B00FB05B301F905BB05B3102F11FD5B
:10181000AC9A11FFAC9805B3102F11FDAF9A11FFD0
:10182000AF9805B3102F11FDD99A11FFD9984091A7
:101830008F1050E004E610E00E94F50FC801EFE0C1
:10184000F2E0038114818017910714F4AA9801C073
:10185000AA9AEFE0F2E0028D138D8017910714F43D
:10186000AD9801C0AD9AEFE0F2E001A912A980178E
:10187000910714F4DB9801C0DB9AE7E5F2E0008100
:1018800011818017910714F4D89801C0D89AEFE01D
:10189000F2E0018112810D3221E012073CF005B324
:1018A000102F11FDA89A11FFA89801C0A89AEFE087
:1018B000F2E0008D118D0D3221E012073CF005B3EE
:1018C000102F11FDAB9A11FFAB9801C0AB9AEFE05E
:1018D000F2E007A510A90D3221E012073CF005B394
:1018E000102F11FDAE9A11FFAE9801C0AE9AE5E53A
:1018F000F2E0008111810D3221E012073CF005B3C6
:10190000102F11FDDA9A11FFDA9801C0DA9A899145
:10191000999108950AE00093720200E00093A010EC
:101920000091A01010E0000F111F000F111FF8010F
:10193000EF5AFF4E458956896789708D00E00E94F5
:10194000210E0091A01010E0000F111FF801EF5AB6
:10195000FF4E018112812DDB00E010E020E030E03D
:10196000E5EDF0E10083118322833383EBE6F2E0BF
:1019700000831183228333830DEC1CE0E0E7F2E067
:101980000083118309E419E0E7E4F9E0008311839F
:1019900007E010E0E5E4F9E00083118308950E9478
:1019A000AA1200E0009372024424552404E0401679
:1019B00000E050067CF580E090E0A0E0B0E0A201FD
:1019C00007E110E00E94F50FF801E15FFD4F838B06
:1019D000948BA58BB68B80E090E0A0E0B0E0A201F4
:1019E00007E110E00E94F50FF801E15FFD4F8583EC
:1019F0009683A783B08780E0A20107E110E00E94F0
:101A0000F50FF801E15FFD4F808301E0400E00E03B
:101A1000501ECCCF00918E10CCDAE6E00C94B512BB
:101A20009A938A93F89401B5006101BD01B50760EE
:101A300001BD7894B3DEC0DE0E94890D0E94DE02F3
:101A400020E000E814E00E94BB03A89501E010E04C
:101A5000E8E9F0E10483158302E010E2E8E9F0E14F
:101A60000683178303E010E0E8E9F0E102871387BB
:101A70000E94980300918E109CDA00E0009372029D
:101A80000E94BD05CADB8BDF0E940B03009172022E
:101A90000A3089F5AEDE00E00E94870E0023A9F12E
:101AA000E0EAF0E10081039500830091A01010911D
:101AB0005110011718F000E00093A0100091A01041
:101AC00010E0000F111F000F111FF801EF5AFF4E19
:101AD000458956896789708D00E00E94210E00912A
:101AE000A01010E0000F111FF801EF5AFF4E018106
:101AF00012815FDA0AC080E090E0843000E0900755
:101B000024F48C0155DC0196F8CFA8950E94330689
:101B1000BBCF20E030E0EFEAF0E12083318300E04A
:101B2000063068F420E030E0402F50E0440F551FAD
:101B3000FA01EF54FF4E208331830395F1CF1DE06E
:101B400013BF10EC11BF17B7126017BF1BE015BD14
:101B500016EE13BD17B7106817BF08959A938A93AE
:101B6000FA93EA933A922A921A920A927A936A9391
:101B70005A934A933A932A931A930A938FB79BB72F
:101B8000EDEAF1E000810A9500830E94B303009121
:101B9000AD01002389F40CE30093AD01E5EDF0E124
:101BA00000811181228133810F5F1F4F2F4F3F4FE3
:101BB00000831183228333839BBF8FBF09911991C7
:101BC0002991399149915991699179910990199087
:101BD00029903990E991F991899199911895FA9301
:101BE000EA933A932A931A930A932FB73BB7EFEAF3
:101BF000F0E1008111810F5F1F4F00831183EFEA35
:101C0000F0E101810F7701833BBF2FBF099119914B
:101C100029913991E991F9911895F894EFEAF0E159
:101C200040815181BA0178940901060E171E402F98
:101C300050E0440F551FFA01EF54FF4E008211820D
:101C400008950E94AB12402ECA01DB019C012F7F38
:101C50003F71042DE2DF8C019D010070107E2F7F0B
:101C60003070442D50E0440F551F440F551FFA01AA
:101C7000E354FF4E0083118322833383E5E00C9409
:101C8000B612202FF894EFEAF0E100811181A8014B
:101C90007894022F10E0000F111FF801EF54FF4E4F
:101CA0000081118111231AF5403000E45007ECF453
:101CB000022F10E0000F111FF801EF54FF4E0081BA
:101CC00011810050104800831183022F10E0000F93
:101CD000111FF801EF54FF4E008111814017510789
:101CE00014F400E0089501E0089500E00895022F43
:101CF00010E0000F111FF801EF54FF4E0081118119
:101D00004017510714F400E0089501E008958A9304
:101D1000802F082FB6DF0023C9F0082F10E0000F36
:101D2000111F000F111FF801E354FF4E00811181B4
:101D300022813381005010422040304000831183C3
:101D40002283338320E030E2082F67DF082F10E082
:101D5000000F111F000F111FF801E354FF4E008107
:101D6000118122813381332312F401E001C000E0AC
:101D700089910895F89420E030E0F80120833183C0
:101D800020E0F8012283789408950E94AA12C801E5
:101D9000D9012A010AEA1AEA0E947407F894F201AA
:101DA00080839183F201A283B38300E0F201048374
:101DB0007894E6E00C94B5120E94AC12D801F901B7
:101DC0000481005071F00A9599F00A95C1F00A95C6
:101DD00009F44CC00A9509F44FC00A9509F453C0A0
:101DE00059C005E50C9301E0F901048300E053C0FC
:101DF0000FE00C9302E0F901048300E04CC0F9010C
:101E000002811381F80100810C930C91053599F43E
:101E100003E0F9010483F9010081118101501040B0
:101E200000831183F901028113810F5F1F4F028329
:101E3000138300E030C0F90100811181015010408E
:101E400000831183F901028113810F5F1F4F028309
:101E50001383F90180819181813090402CF404E05A
:101E6000F901048300E017C000E015C005E50C93FC
:101E700002E0F9010483EDCF05E50C9305E0F901DB
:101E8000048300E008C000EF0C9306E0F90104832E
:101E900000E001C001E0E4E00C94B712102FF9015A
:101EA0000281005031F00A9569F00A9509F44EC09C
:101EB00070C0153529F401E0F90102830AE00895A4
:101EC00002E00895012F005F79F00F5119F00654D8
:101ED000D1F037C040E050E0F9014083518302E087
:101EE000F901028301E00895F90140815181452BF8
:101EF00029F400E0F901028302E0089503E0F9010A
:101F0000028300E00895F90140815181452BA1F041
:101F100002E0F901028305E5F90140815181F901EF
:101F2000E40FF51F0383F901408151814F5F5F4F3B
:101F30004083518301E0089500E0F901028302E04B
:101F4000089500E0F901028302E00895153529F4AF
:101F500001E0F901028301E00895F9014081518116
:101F60004F3F01E0500784F4F90140815181F901AC
:101F7000E40FF51F1383F901408151814F5F5F4FDB
:101F80004083518301E0089500E0F901028301E0FC
:101F9000089500E0F901028302E0089500008895A9
:101FA000FECF07EA0DBF01E00EBFC0E8D1E00E94FE
:101FB000C212002311F00E94E2120E94100D0E9432
:101FC000CE0F0C94CE0FE199FECF08954F5F5F4F77
:101FD000FADF4EBB5FBBE09A0895FADF0DB30895B8
:101FE000F7DF0DB3F3DF1DB30895149F102D059F88
:101FF000100D049F002D110D08952224349F302DC3
:10200000259F300D169F300D079F300D249F202DEA
:10201000310D159F200D311D069F200D311D149F80
:10202000102D210D321D059F100D211D321D049F05
:10203000002D110D221D321D08954A952AF0369566
:10204000279517950795F9CF0895002411241001BD
:10205000E0E2EA9592F0001F111F221F331F001CBF
:10206000111C221C331C041615062606370688F39D
:10207000041A150A260A370AECCF001F111F221F67
:10208000331FA001B101009510952095309508955A
:10209000FF27772312F4F16015D0332312F4F09563
:1020A00009D00E942510F69508F404D0F69508F49E
:1020B00009C0089530952095109501951F4F2F4F19
:1020C0003F4F089570956095509541955F4F6F4FC4
:1020D0007F4F0895FF27112477FB660F771F089421
:1020E00009F4771F679517F8EE27002437FB220FB6
:1020F000331F089409F4331F279507F8089527FD27
:102100000EC0EE0F001F111F221F3A953230B8F794
:10211000332319F427FD31E002C027FF30E0E03817
:1021200021F400FF08940EF488940F4F1F4F2F4F97
:102130003F4F323038F4332319F427FD31E002C029
:1021400027FF30E03F3F29F0220F000C37952795FD
:102150000895A7C0032E002012F40E945A10E02F09
:10216000012F122F232F3EE9D1CFBEDF432F4F5730
:1021700048F04F3148F007FC8EC03FE72FEF1FEFCC
:102180000FEF0895332789C0322F212F102F0E2FE4
:102190004F5141950E941D1007FE08950C945A104E
:1021A000F901EE0FFF1F37FBFF3F31F0EF2BE12B63
:1021B000E02B8894B8940895E02BE12B21F008944B
:1021C0009894B89408959894889438940895FB014D
:1021D000EE0FFF1F77FBFF3F31F0EF2BE52BE42BDA
:1021E0008894B8940895E42BE52B69F3E8CFEFDFEA
:1021F00068F021F43723262F8A010895372FFBCF6B
:10220000E6DF20F00BF008957327EAF74EC0C8DF31
:10221000E8F3B3F361F3DBDFC8F383F3A1F35ADF31
:10222000401751076207730731F4011411F10024BC
:10223000E89488942BC078F0332E372F732D322EEC
:10224000262F632D312E152F532D302E042F432D85
:10225000302C012C132C371739F06695579547957C
:10226000F795E0407395F7CFE7FBEE0FE0E0102421
:102270006AF0EF0F041F151F261F60F427951795AE
:102280000795E79508F46894339540CFEF0B040B5E
:10229000150B260B3BCF302D307822271127002736
:1022A00008953FE7302920E8F9CF3FEF2FEFF6CF31
:1022B0008EDFD8F3D1F370783727089588DFA8F33D
:1022C000A3F3F9CF3078372796CF6ADF70F383F323
:1022D000A9F37DDF50F3B3F3A9F3FCDE0124E89406
:1022E0003F57E040370FEF1F12F0D9F603C03A3ED8
:1022F00090F26894E0E00A92AA933A93AA273324D2
:1023000022243327049FF001059FF00D712D731FC8
:10231000149FF00D711D221C069F700D211C331C93
:10232000159F700D211C331E249F700D211C331E20
:10233000169F200C311CAA1F259F200C311CA31FA7
:10234000269F300CA11D39915EF43395A6953794E4
:1023500027947795F795E79533953130BCF316C000
:10236000AA2322F0332351F4339510C0339571F42E
:10237000A991099096CFA7FD09C03A95EE0FFF1FCE
:10238000771F221C331CAA1F3230A8F7E894FE2BBB
:1023900009F068942A2F8101E72FA9910990BFCEF7
:1023A00016DF10F00BF087CF80CF11DFE9F3E0F3F9
:1023B000032E072670CF032E072673CFF1DEA0F37E
:1023C0007BF399F304DF80F39BF3A9F383DE01240D
:1023D00027FD06C0000F111F221F3150E040F8CF2B
:1023E00067FD06C0440F551F661F7150F040F8CFBF
:1023F000E894371BEF0B3158EF4F2AF0EE23E9F644
:102400003F3FD9F203C03A3EA8F26894E0E0F0E022
:102410001124139440175107620738F0315008F423
:102420006894000F111F221FEE1F041B150B260BB3
:10243000EF0B000F111F221FEE1FAA9379E17A956F
:10244000AAF0041715072607EF0730F0041B150B39
:10245000260BEF0B089401C08894111C221C331C1E
:10246000AA1F000F111F221FEE1FE9CFF0F9E894F9
:10247000E22BE12BE02B09F06894A6953794279482
:102480001794E79508F468947395B9F3A9913323E9
:1024900011F0F0FF09C0369427941794E79508F4DB
:1024A000689433953130BCF3012D122D232D37CE96
:1024B0007791679157914791179011FA279037902C
:1024C0000895F9DF041B10E003C0F4DF041B150BB3
:1024D00020E030E005C0ECDF041B150B260B370BAA
:1024E000B8F010FC17C047910790E00FF11F0417D8
:1024F000100540E02407340758F436F40691002410
:10250000F101E01BF0090994E00FF11F27903790CB
:10251000F101099411F4D6F7F1CF31960EF031960E
:1025200050E060E070E047914B3F48F089F34F3F47
:1025300029F04E3F11F07791679157914791041B15
:10254000150B260B370B39F318F3E7CF9A928A92C3
:102550007A926A925A924A92BA93AA939A938A93D7
:102560000895998488847F806E805D804C80BB81D3
:10257000AA8199818881F0E00FB6F894CE0FDF1F11
:102580000FBE089501E008950D01D80104C0F901BE
:1025900061919F016D93BA0141505040672BB9F78B
:1025A000D001089520E008D0E9F708953BBF2791B6
:1025B0003BB702D0D9F708952D9301501040202F3A
:1025C000212B089504E2402E06E2502E00E0602EFA
:1025D000F201362D6BBE07911691F201EE5FFF4FAF
:1025E0003F4F3BBFA791B691F201362DEC5FFF4FF5
:1025F0003F4F3BBF479157916691242F252B262BA8
:1026000021F0FA01362FD2DF01C0CCDF07E0400E07
:1026100000E0501E601EA201662D4233564260400B
:10262000B8F208952B0FAE010000000600A8013299
:08263000260002102700003C07
:00000001FF
:00000001FF
